:10000000020003D2B275900075A000758909D28CE8
:0F0010007F017E017D12020019C2A1D2A078F9F2
:10001F00D8FE8FF01200DFD5F0FAC2A078FFD8FE1D
:0F002F007856D8FE75F0111200E4D5F0FA8EF075
:0F003E001200DFD5F0FA0DBD1309D2A112006335
:10004D007D0080C8BD12C7C3EE94044007B4000202
:0F005D0005E0AEE080B81200858FE075F00584F5
:0F006C007F057E1D7800B400030200840F1E087C
:10007B00B81903020084D5E0F422758C00758A0050
:0E008B00D2A700000000000000000000C2A785
:1000990030B2FD20B2FD7F007D0075F03AE58A841B
:1000A9002FFFE5F02DFDAE8CBE002375F03AED84EF
:0F00B9002FB400030200CAB401030200CA94026C
:0F00C800AFE0A2E292B7A2E192B6A2E092B52217
:0F00D700758AFFD58CC680C47818D8FE2278F8B9
:0F00E600D8FE78F8D8FE2211E411E411E411E4F9
:1000F50011E411E411E411E411E411E411E411E453
:1001050011E411E411E42244495354414E43494159
:030115003A20008D
:00000001FF
